:100000000A128A11ED2F00308A000408840A820740
:1000100000341234183452344634493444342034D1
:1000200041347434743465346E34643461346E3401
:1000300063346534003449346E34763461346C345E
:100040006934643420344334613472346434213488
:10005000003441347434743465346E34643461343F
:100060006E34633465343A3400344D346134723460
:100070006B34653464342134003443346134723475
:0600800064343A34003440
:1007A20020340034831203138C1ED82BD92BD32B65
:1007B2001A0808008312031386140330F1009730DD
:1007C200F000F00BE22BF10BE22BE72B8312031369
:1007D2008610080001300A128A11AC250A128A1109
:1007E2000630F5003030F400F40BF52BF50BF52B49
:1007F200000008008316031387170713333099008C
:100802001815181283120313981718168316031358
:10081200981608001A2C740884000A128A11032000
:100822000A128A110A128A1143260A128A11013007
:10083200F407740884000A128A1103200A128A112A
:10084200003A031D252C262C0C2C0800F401F5017E
:10085200701C2C2C2D2C332C7208F4070318F50A6B
:100862007308F50701300310F20DF30DFF3E031D6F
:10087200342C01300310F10CF00CFF3E031D3B2C15
:1008820070087104031D462C472C292C7508F100B1
:100892007408F00008008316031386013430F50053
:1008A200F130F400F40B532CF50B532C582C02307E
:1008B2000A128A11AC250A128A1128300A128A11E8
:1008C200AC250A128A110C300A128A11AC250A12BE
:1008D2008A1106300A128A11AC250A128A110130D5
:1008E2000A128A11AC250A128A110800F501F31FB7
:1008F2007B2C7C2C832CF209F309F20A0319F30AEC
:100902000130F500F11F862C872C8C2CF009F1099F
:10091200F00A0319F10A700871040319912C922C40
:10092200BF2C0130F4009E2C01300310F00DF10DAC
:10093200FF3E031D962C0130F407F11FA12CA22CBF
:10094200952C71087302031DA82C70087202031CF7
:10095200AB2CAC2CB22C7008F2027108031CF3030E
:10096200F30201300310F10CF00CFF3E031DB32C17
:100972000130F402031DBE2CBF2CA22C75080319F2
:10098200C32CC42CC92CF209F309F20A0319F30A85
:100992007308F1007208F0000800F501F11FD22C73
:1009A200D32CDA2CF009F109F00A0319F10A01300B
:1009B200F500F31FDD2CDE2CE52CF209F309F20A17
:1009C2000319F30A0130F506F601F7017008710404
:1009D2000319EC2CED2C222D0130F400F92C0130FE
:1009E2000310F00DF10DFF3E031DF12C0130F40751
:1009F200F11FFC2CFD2CF02C01300310F60DF70D2D
:100A0200FF3E031DFE2C71087302031D0A2D7008A0
:100A12007202031C0D2D0E2D152D7008F2027108A5
:100A2200031CF303F302761401300310F10CF00CF3
:100A3200FF3E031D162D0130F402031D212D222D30
:100A4200FD2C75080319262D272D2C2DF609F709E3
:100A5200F60A0319F70A7708F1007608F000080091
:100A620083120313A601A7017908AB007808AA0034
:100A720078087904031D3E2D3F2D772D30300A1260
:100A82008A1143260A128A11AB2D831203132608F8
:100A9200203E84000A30F0000030F1002B08F30001
:100AA2002A08F2000A128A1177240A128A1170089F
:100AB200303E83138000013083120313A60703180C
:100AC200A70A0030A7070A30F0000030F1002B0817
:100AD200F3002A08F2000A128A11CE240A128A119D
:100AE200710883120313AB007008AA002B08803A26
:100AF200FF0080307F02031D802D01302A0203187F
:100B0200832D842D462D831203132608203E840054
:100B1200831380012608FF3EA80027080318013E20
:100B2200FF3EA900A91F962D972D982DAB2D2808C1
:100B3200203E8400831300080A128A1143260A12F7
:100B42008A11FF3083120313A8070318A90AFF3082
:100B5200A907932D0800F3008312031306107308EC
:100B6200F20004300310F20CFF3E031DB32D721885
:100B7200BB2DBF2D831203130615C22D831203133F
:100B820006117308F20005300310F20CFF3E031D3C
:100B9200C52D7218CD2DD12D831203138615D42D98
:100BA2008312031386117308F20006300310F20C4D
:100BB200FF3E031DD72D7218DF2DE32D8312031381
:100BC2000616E62D8312031306127308F20007308D
:100BD2000310F20CFF3E031DE92D7218F12DF52DC5
:100BE200831203138616F82D8312031386120A1238
:100BF2008A11DB230A128A117318002E042E831223
:100C020003130615072E8312031306117308F2004D
:100C120001300310F20CFF3E031D0A2E7218122E31
:100C2200162E831203138615192E831203138611AF
:100C32007308F20002300310F20CFF3E031D1C2E5B
:100C42007218242E282E8312031306162B2E8312BB
:100C5200031306127308F20003300310F20CFF3E76
:100C6200031D2E2E7218362E3A2E83120313861669
:100C72003D2E8312031386120A128A11DB230A12F3
:100C82008A110800F3008312031306147308F2009A
:100C920004300310F20CFF3E031D4A2E7218522E2E
:100CA200562E831203130615592E831203130611AF
:100CB2007308F20005300310F20CFF3E031D5C2E98
:100CC2007218642E682E8312031386156B2E8312FC
:100CD200031386117308F20006300310F20CFF3E74
:100CE200031D6E2E7218762E7A2E831203130616A9
:100CF2007D2E8312031306127308F20007300310CD
:100D0200F20CFF3E031D802E7218882E8C2E831249
:100D1200031386168F2E8312031386120A128A1168
:100D2200DB230A128A117318972E9B2E8312031348
:100D320006159E2E8312031306117308F20001306A
:100D42000310F20CFF3E031DA12E7218A92EAD2E28
:100D5200831203138615B02E8312031386117308B0
:100D6200F20002300310F20CFF3E031DB32E721884
:100D7200BB2EBF2E831203130616C22E8312031339
:100D820006127308F20003300310F20CFF3E031D3B
:100D9200C52E7218CD2ED12E831203138616D42E91
:100DA2008312031386120A128A11DB230A128A1192
:100DB200080083160313071087108312031307100A
:100DC20087100A128A114C240A128A110A128A11F5
:100DD200FB230A128A110330F4000A128A110B242F
:100DE2000A128A110B30FC002630FB005D30FA003B
:100DF200FA0BF92EFB0BF92EFC0BF92E002F0A121F
:100E02008A11EB230A128A1183120313AE01AF0176
:100E1200AD010A128A11D3230A128A118312031313
:100E2200AC002F08F1002E08F0000A30F20000306A
:100E3200F3000A128A1127240A128A118312031359
:100E42002C087007FA000030031801307107FB000C
:100E52007A08D03EAE007B080318013EFF3EAF0089
:100E62000130AD0704302D02031C382F392F0A2F11
:100E72000A128A11EB230A128A113530F4000A127F
:100E82008A110B240A128A11C0300A128A11AC2567
:100E92000A128A11831203132F08F9002E08F80090
:100EA2000A128A1131250A128A111230831203138F
:100EB2002E06183003192F06031D602F612FBD2F38
:100EC2000A128A11EB230A128A110830F4000A125C
:100ED2008A110B240A128A11C0300A128A11AC2517
:100EE2000A128A112D30F4000A128A110B240A12F6
:100EF2008A118312031387140430FC000C30FB00A8
:100F02003330FA00FA0B832FFB0B832FFC0B832F5A
:100F12008A2F8312031387103008203E8400013089
:100F2200831380000130B0070A128A11EB230A12E0
:100F32008A112130F4000A128A110B240A128A1132
:100F420083120313AD01B62F2D08C03E0A128A1177
:100F5200AC250A128A1150300A128A1143260A124B
:100F62008A11013083120313AD0730082D02031CCE
:100F7200BB2FBC2FA52FDC2F0A128A11EB230A12DA
:100F82008A111330F4000A128A110B240A128A11F0
:100F92008312031307140430FC000C30FB003330BF
:100FA200FA00FA0BD22FFB0BD22FFC0BD22FD92F28
:100FB2008312031307100630FC001330FB00AD3020
:100FC200FA00FA0BE22FFB0BE22FFC0BE22FE92FC8
:100FD200052F0A128A1100280A128A11D1230A1235
:100FE2008A11B1000A128A11D2230A128A11B2009E
:0E0FF200AE01AF01B00183010A128A11DA2E9E
:02400E00723FFF
:00000001FF
